{
  "contractName": "Election",
  "abi": [
    {
      "inputs": [],
      "stateMutability": "nonpayable",
      "type": "constructor"
    },
    {
      "anonymous": false,
      "inputs": [
        {
          "indexed": false,
          "internalType": "uint256",
          "name": "electionId",
          "type": "uint256"
        },
        {
          "indexed": false,
          "internalType": "uint256",
          "name": "candidateId",
          "type": "uint256"
        },
        {
          "indexed": false,
          "internalType": "string",
          "name": "name",
          "type": "string"
        }
      ],
      "name": "CandidateAdded",
      "type": "event"
    },
    {
      "anonymous": false,
      "inputs": [
        {
          "indexed": false,
          "internalType": "uint256",
          "name": "electionId",
          "type": "uint256"
        },
        {
          "indexed": false,
          "internalType": "string",
          "name": "name",
          "type": "string"
        },
        {
          "indexed": false,
          "internalType": "uint256",
          "name": "startTime",
          "type": "uint256"
        },
        {
          "indexed": false,
          "internalType": "uint256",
          "name": "endTime",
          "type": "uint256"
        }
      ],
      "name": "ElectionCreated",
      "type": "event"
    },
    {
      "anonymous": false,
      "inputs": [
        {
          "indexed": false,
          "internalType": "uint256",
          "name": "electionId",
          "type": "uint256"
        },
        {
          "indexed": false,
          "internalType": "uint256",
          "name": "candidateId",
          "type": "uint256"
        },
        {
          "indexed": false,
          "internalType": "address",
          "name": "voter",
          "type": "address"
        }
      ],
      "name": "VoteCast",
      "type": "event"
    },
    {
      "anonymous": false,
      "inputs": [
        {
          "indexed": false,
          "internalType": "address",
          "name": "voterAddress",
          "type": "address"
        },
        {
          "indexed": false,
          "internalType": "string",
          "name": "voterId",
          "type": "string"
        }
      ],
      "name": "VoterRegistered",
      "type": "event"
    },
    {
      "anonymous": false,
      "inputs": [
        {
          "indexed": false,
          "internalType": "string",
          "name": "voterId",
          "type": "string"
        }
      ],
      "name": "VoterRemoved",
      "type": "event"
    },
    {
      "inputs": [],
      "name": "admin",
      "outputs": [
        {
          "internalType": "address",
          "name": "",
          "type": "address"
        }
      ],
      "stateMutability": "view",
      "type": "function",
      "constant": true
    },
    {
      "inputs": [
        {
          "internalType": "uint256",
          "name": "",
          "type": "uint256"
        },
        {
          "internalType": "uint256",
          "name": "",
          "type": "uint256"
        }
      ],
      "name": "candidates",
      "outputs": [
        {
          "internalType": "uint256",
          "name": "id",
          "type": "uint256"
        },
        {
          "internalType": "string",
          "name": "name",
          "type": "string"
        },
        {
          "internalType": "string",
          "name": "description",
          "type": "string"
        },
        {
          "internalType": "uint256",
          "name": "voteCount",
          "type": "uint256"
        }
      ],
      "stateMutability": "view",
      "type": "function",
      "constant": true
    },
    {
      "inputs": [],
      "name": "electionCount",
      "outputs": [
        {
          "internalType": "uint256",
          "name": "",
          "type": "uint256"
        }
      ],
      "stateMutability": "view",
      "type": "function",
      "constant": true
    },
    {
      "inputs": [
        {
          "internalType": "uint256",
          "name": "",
          "type": "uint256"
        }
      ],
      "name": "elections",
      "outputs": [
        {
          "internalType": "uint256",
          "name": "id",
          "type": "uint256"
        },
        {
          "internalType": "string",
          "name": "name",
          "type": "string"
        },
        {
          "internalType": "string",
          "name": "description",
          "type": "string"
        },
        {
          "internalType": "uint256",
          "name": "startTime",
          "type": "uint256"
        },
        {
          "internalType": "uint256",
          "name": "endTime",
          "type": "uint256"
        },
        {
          "internalType": "bool",
          "name": "isActive",
          "type": "bool"
        },
        {
          "internalType": "uint256",
          "name": "candidateCount",
          "type": "uint256"
        }
      ],
      "stateMutability": "view",
      "type": "function",
      "constant": true
    },
    {
      "inputs": [
        {
          "internalType": "uint256",
          "name": "",
          "type": "uint256"
        },
        {
          "internalType": "address",
          "name": "",
          "type": "address"
        }
      ],
      "name": "hasVoted",
      "outputs": [
        {
          "internalType": "bool",
          "name": "",
          "type": "bool"
        }
      ],
      "stateMutability": "view",
      "type": "function",
      "constant": true
    },
    {
      "inputs": [
        {
          "internalType": "uint256",
          "name": "",
          "type": "uint256"
        }
      ],
      "name": "voterList",
      "outputs": [
        {
          "internalType": "address",
          "name": "",
          "type": "address"
        }
      ],
      "stateMutability": "view",
      "type": "function",
      "constant": true
    },
    {
      "inputs": [
        {
          "internalType": "address",
          "name": "",
          "type": "address"
        }
      ],
      "name": "voters",
      "outputs": [
        {
          "internalType": "string",
          "name": "name",
          "type": "string"
        },
        {
          "internalType": "string",
          "name": "voterId",
          "type": "string"
        },
        {
          "internalType": "bool",
          "name": "isRegistered",
          "type": "bool"
        },
        {
          "internalType": "address",
          "name": "voterAddress",
          "type": "address"
        }
      ],
      "stateMutability": "view",
      "type": "function",
      "constant": true
    },
    {
      "inputs": [
        {
          "internalType": "string",
          "name": "_name",
          "type": "string"
        },
        {
          "internalType": "string",
          "name": "_description",
          "type": "string"
        },
        {
          "internalType": "uint256",
          "name": "_startTime",
          "type": "uint256"
        },
        {
          "internalType": "uint256",
          "name": "_endTime",
          "type": "uint256"
        }
      ],
      "name": "createElection",
      "outputs": [],
      "stateMutability": "nonpayable",
      "type": "function"
    },
    {
      "inputs": [
        {
          "internalType": "uint256",
          "name": "_electionId",
          "type": "uint256"
        },
        {
          "internalType": "string",
          "name": "_name",
          "type": "string"
        },
        {
          "internalType": "string",
          "name": "_description",
          "type": "string"
        }
      ],
      "name": "addCandidate",
      "outputs": [],
      "stateMutability": "nonpayable",
      "type": "function"
    },
    {
      "inputs": [
        {
          "internalType": "string",
          "name": "_name",
          "type": "string"
        },
        {
          "internalType": "string",
          "name": "_voterId",
          "type": "string"
        },
        {
          "internalType": "address",
          "name": "_voterAddress",
          "type": "address"
        }
      ],
      "name": "registerVoter",
      "outputs": [],
      "stateMutability": "nonpayable",
      "type": "function"
    },
    {
      "inputs": [
        {
          "internalType": "uint256",
          "name": "_electionId",
          "type": "uint256"
        },
        {
          "internalType": "uint256",
          "name": "_candidateId",
          "type": "uint256"
        }
      ],
      "name": "vote",
      "outputs": [],
      "stateMutability": "nonpayable",
      "type": "function"
    },
    {
      "inputs": [
        {
          "internalType": "uint256",
          "name": "_electionId",
          "type": "uint256"
        },
        {
          "internalType": "string",
          "name": "_name",
          "type": "string"
        },
        {
          "internalType": "string",
          "name": "_description",
          "type": "string"
        },
        {
          "internalType": "uint256",
          "name": "_startTime",
          "type": "uint256"
        },
        {
          "internalType": "uint256",
          "name": "_endTime",
          "type": "uint256"
        }
      ],
      "name": "modifyElection",
      "outputs": [],
      "stateMutability": "nonpayable",
      "type": "function"
    },
    {
      "inputs": [
        {
          "internalType": "uint256",
          "name": "_electionId",
          "type": "uint256"
        }
      ],
      "name": "deleteElection",
      "outputs": [],
      "stateMutability": "nonpayable",
      "type": "function"
    },
    {
      "inputs": [
        {
          "internalType": "uint256",
          "name": "_electionId",
          "type": "uint256"
        },
        {
          "internalType": "uint256",
          "name": "_candidateId",
          "type": "uint256"
        }
      ],
      "name": "deleteCandidate",
      "outputs": [],
      "stateMutability": "nonpayable",
      "type": "function"
    },
    {
      "inputs": [
        {
          "internalType": "address",
          "name": "_voterAddress",
          "type": "address"
        }
      ],
      "name": "deleteVoter",
      "outputs": [],
      "stateMutability": "nonpayable",
      "type": "function"
    },
    {
      "inputs": [],
      "name": "getAllVoters",
      "outputs": [
        {
          "internalType": "address[]",
          "name": "voterAddresses",
          "type": "address[]"
        },
        {
          "internalType": "string[]",
          "name": "names",
          "type": "string[]"
        },
        {
          "internalType": "string[]",
          "name": "voterIds",
          "type": "string[]"
        },
        {
          "internalType": "bool[]",
          "name": "isRegistered",
          "type": "bool[]"
        }
      ],
      "stateMutability": "view",
      "type": "function",
      "constant": true
    },
    {
      "inputs": [
        {
          "internalType": "uint256",
          "name": "_electionId",
          "type": "uint256"
        }
      ],
      "name": "getElection",
      "outputs": [
        {
          "internalType": "uint256",
          "name": "id",
          "type": "uint256"
        },
        {
          "internalType": "string",
          "name": "name",
          "type": "string"
        },
        {
          "internalType": "string",
          "name": "description",
          "type": "string"
        },
        {
          "internalType": "uint256",
          "name": "startTime",
          "type": "uint256"
        },
        {
          "internalType": "uint256",
          "name": "endTime",
          "type": "uint256"
        },
        {
          "internalType": "bool",
          "name": "isActive",
          "type": "bool"
        },
        {
          "internalType": "uint256",
          "name": "candidateCount",
          "type": "uint256"
        }
      ],
      "stateMutability": "view",
      "type": "function",
      "constant": true
    },
    {
      "inputs": [
        {
          "internalType": "uint256",
          "name": "_electionId",
          "type": "uint256"
        },
        {
          "internalType": "uint256",
          "name": "_candidateId",
          "type": "uint256"
        }
      ],
      "name": "getCandidate",
      "outputs": [
        {
          "internalType": "uint256",
          "name": "id",
          "type": "uint256"
        },
        {
          "internalType": "string",
          "name": "name",
          "type": "string"
        },
        {
          "internalType": "string",
          "name": "description",
          "type": "string"
        },
        {
          "internalType": "uint256",
          "name": "voteCount",
          "type": "uint256"
        }
      ],
      "stateMutability": "view",
      "type": "function",
      "constant": true
    },
    {
      "inputs": [
        {
          "internalType": "address",
          "name": "_voterAddress",
          "type": "address"
        }
      ],
      "name": "getVoter",
      "outputs": [
        {
          "internalType": "string",
          "name": "name",
          "type": "string"
        },
        {
          "internalType": "string",
          "name": "voterId",
          "type": "string"
        },
        {
          "internalType": "bool",
          "name": "isRegistered",
          "type": "bool"
        }
      ],
      "stateMutability": "view",
      "type": "function",
      "constant": true
    },
    {
      "inputs": [
        {
          "internalType": "uint256",
          "name": "_electionId",
          "type": "uint256"
        },
        {
          "internalType": "address",
          "name": "_voterAddress",
          "type": "address"
        }
      ],
      "name": "checkVoterVoteStatus",
      "outputs": [
        {
          "internalType": "bool",
          "name": "",
          "type": "bool"
        }
      ],
      "stateMutability": "view",
      "type": "function",
      "constant": true
    },
    {
      "inputs": [],
      "name": "getAllCandidates",
      "outputs": [
        {
          "internalType": "uint256[]",
          "name": "electionIds",
          "type": "uint256[]"
        },
        {
          "internalType": "uint256[]",
          "name": "candidateIds",
          "type": "uint256[]"
        },
        {
          "internalType": "string[]",
          "name": "names",
          "type": "string[]"
        },
        {
          "internalType": "string[]",
          "name": "descriptions",
          "type": "string[]"
        },
        {
          "internalType": "uint256[]",
          "name": "voteCounts",
          "type": "uint256[]"
        },
        {
          "internalType": "bool[]",
          "name": "activeStates",
          "type": "bool[]"
        }
      ],
      "stateMutability": "view",
      "type": "function",
      "constant": true
    },
    {
      "inputs": [],
      "name": "getTotalCandidateCount",
      "outputs": [
        {
          "internalType": "uint256",
          "name": "",
          "type": "uint256"
        }
      ],
      "stateMutability": "view",
      "type": "function",
      "constant": true
    },
    {
      "inputs": [],
      "name": "getActiveElectionsCount",
      "outputs": [
        {
          "internalType": "uint256",
          "name": "",
          "type": "uint256"
        }
      ],
      "stateMutability": "view",
      "type": "function",
      "constant": true
    }
  ],
  "bytecode": "0x608060405234801561001057600080fd5b50600580546001600160a01b0319163317905561306f806100326000396000f3fe608060405234801561001057600080fd5b506004361061014d5760003560e01c806388e1c739116100c3578063cf4a60601161007c578063cf4a6060146102fb578063d3f7655b1461030e578063d4f50f9814610316578063d5f0355514610338578063e6c62efc14610340578063f851a440146103535761014d565b806388e1c73914610277578063997d28301461028a5780639d7107771461029f578063a3ec138d146102b2578063af033ba0146102d5578063b384abef146102e85761014d565b80634bd46448116101155780634bd46448146101d557806350e2e8af146101f85780635e6fef0114610218578063740c47d41461023e5780637ad36e84146102515780637de14242146102645761014d565b806317b9b4aa146101525780632e6997fe1461016757806335bbe70e1461018a57806335f1fd9f146101a257806343859632146101c2575b600080fd5b610165610160366004612707565b61035b565b005b61016f61042e565b60405161018196959493929190612973565b60405180910390f35b610192610ac8565b60405161018194939291906128e9565b6101b56101b0366004612673565b610ed1565b60405161018191906129f5565b6101b56101d0366004612673565b610f21565b6101e86101e3366004612782565b610f41565b6040516101819493929190612e7a565b61020b61020636600461265b565b611117565b60405161018191906128a9565b61022b61022636600461265b565b611141565b6040516101819796959493929190612eb7565b61016561024c36600461265b565b611293565b61016561025f3660046125eb565b61132c565b6101e8610272366004612782565b6114aa565b61016561028536600461255a565b6115ea565b610292611836565b6040516101819190612e71565b61022b6102ad36600461265b565b61183c565b6102c56102c036600461255a565b611a2e565b6040516101819493929190612a38565b6101656102e336600461257b565b611b74565b6101656102f6366004612782565b611d2d565b610165610309366004612782565b611f10565b61029261204c565b61032961032436600461255a565b61209b565b60405161018193929190612a00565b610292612237565b61016561034e36600461269e565b612276565b61020b6123d7565b6005546001600160a01b0316331461038e5760405162461bcd60e51b815260040161038590612d7d565b60405180910390fd5b846000811180156103a157506004548111155b6103bd5760405162461bcd60e51b815260040161038590612c02565b6000868152602081905260409020600381015442106103ee5760405162461bcd60e51b815260040161038590612b29565b855161040390600183019060208901906123e6565b50845161041990600283019060208801906123e6565b50600381019390935550600490910155505050565b60608080808080600060015b60045481116104735760008181526020819052604090206006015461045f9083612f88565b91508061046b81612ff2565b91505061043a565b50806001600160401b0381111561049a57634e487b7160e01b600052604160045260246000fd5b6040519080825280602002602001820160405280156104c3578160200160208202803683370190505b509650806001600160401b038111156104ec57634e487b7160e01b600052604160045260246000fd5b604051908082528060200260200182016040528015610515578160200160208202803683370190505b509550806001600160401b0381111561053e57634e487b7160e01b600052604160045260246000fd5b60405190808252806020026020018201604052801561057157816020015b606081526020019060019003908161055c5790505b509450806001600160401b0381111561059a57634e487b7160e01b600052604160045260246000fd5b6040519080825280602002602001820160405280156105cd57816020015b60608152602001906001900390816105b85790505b509350806001600160401b038111156105f657634e487b7160e01b600052604160045260246000fd5b60405190808252806020026020018201604052801561061f578160200160208202803683370190505b509250806001600160401b0381111561064857634e487b7160e01b600052604160045260246000fd5b604051908082528060200260200182016040528015610671578160200160208202803683370190505b509150600060015b6004548111610abd5760008060008381526020019081526020016000206040518060e0016040529081600082015481526020016001820180546106bb90612fb7565b80601f01602080910402602001604051908101604052809291908181526020018280546106e790612fb7565b80156107345780601f1061070957610100808354040283529160200191610734565b820191906000526020600020905b81548152906001019060200180831161071757829003601f168201915b5050505050815260200160028201805461074d90612fb7565b80601f016020809104026020016040519081016040528092919081815260200182805461077990612fb7565b80156107c65780601f1061079b576101008083540402835291602001916107c6565b820191906000526020600020905b8154815290600101906020018083116107a957829003601f168201915b50505091835250506003820154602082015260048201546040820152600582015460ff1615156060820152600690910154608090910152905060015b8160c001518111610aa8576000838152600160208181526040808420858552825280842081516080810190925280548252928301805491939284019161084790612fb7565b80601f016020809104026020016040519081016040528092919081815260200182805461087390612fb7565b80156108c05780601f10610895576101008083540402835291602001916108c0565b820191906000526020600020905b8154815290600101906020018083116108a357829003601f168201915b505050505081526020016002820180546108d990612fb7565b80601f016020809104026020016040519081016040528092919081815260200182805461090590612fb7565b80156109525780601f1061092757610100808354040283529160200191610952565b820191906000526020600020905b81548152906001019060200180831161093557829003601f168201915b505050505081526020016003820154815250509050838c868151811061098857634e487b7160e01b600052603260045260246000fd5b602002602001018181525050818b86815181106109b557634e487b7160e01b600052603260045260246000fd5b60200260200101818152505080602001518a86815181106109e657634e487b7160e01b600052603260045260246000fd5b60200260200101819052508060400151898681518110610a1657634e487b7160e01b600052603260045260246000fd5b60200260200101819052508060600151888681518110610a4657634e487b7160e01b600052603260045260246000fd5b6020026020010181815250508260a00151878681518110610a7757634e487b7160e01b600052603260045260246000fd5b9115156020928302919091019091015284610a9181612ff2565b955050508080610aa090612ff2565b915050610802565b50508080610ab590612ff2565b915050610679565b505050909192939495565b600654606090819081908190806001600160401b03811115610afa57634e487b7160e01b600052604160045260246000fd5b604051908082528060200260200182016040528015610b23578160200160208202803683370190505b509450806001600160401b03811115610b4c57634e487b7160e01b600052604160045260246000fd5b604051908082528060200260200182016040528015610b7f57816020015b6060815260200190600190039081610b6a5790505b509350806001600160401b03811115610ba857634e487b7160e01b600052604160045260246000fd5b604051908082528060200260200182016040528015610bdb57816020015b6060815260200190600190039081610bc65790505b509250806001600160401b03811115610c0457634e487b7160e01b600052604160045260246000fd5b604051908082528060200260200182016040528015610c2d578160200160208202803683370190505b50915060005b81811015610ec957600060068281548110610c5e57634e487b7160e01b600052603260045260246000fd5b60009182526020808320909101546001600160a01b0316808352600290915260408083208151608081019092528054929450909182908290610c9f90612fb7565b80601f0160208091040260200160405190810160405280929190818152602001828054610ccb90612fb7565b8015610d185780601f10610ced57610100808354040283529160200191610d18565b820191906000526020600020905b815481529060010190602001808311610cfb57829003601f168201915b50505050508152602001600182018054610d3190612fb7565b80601f0160208091040260200160405190810160405280929190818152602001828054610d5d90612fb7565b8015610daa5780601f10610d7f57610100808354040283529160200191610daa565b820191906000526020600020905b815481529060010190602001808311610d8d57829003601f168201915b50505091835250506002919091015460ff81161515602083015261010090046001600160a01b031660409091015288519091508290899085908110610dff57634e487b7160e01b600052603260045260246000fd5b60200260200101906001600160a01b031690816001600160a01b0316815250508060000151878481518110610e4457634e487b7160e01b600052603260045260246000fd5b60200260200101819052508060200151868481518110610e7457634e487b7160e01b600052603260045260246000fd5b60200260200101819052508060400151858481518110610ea457634e487b7160e01b600052603260045260246000fd5b9115156020928302919091019091015250819050610ec181612ff2565b915050610c33565b505090919293565b6000600454831115610ef55760405162461bcd60e51b815260040161038590612c02565b5060009182526003602090815260408084206001600160a01b0393909316845291905290205460ff1690565b600360209081526000928352604080842090915290825290205460ff1681565b60006060806000600454861115610f6a5760405162461bcd60e51b815260040161038590612c02565b600086815260208190526040902060060154851115610f9b5760405162461bcd60e51b815260040161038590612bd7565b60008681526001602081815260408084208985528252808420815160808101909252805482529283018054919392840191610fd590612fb7565b80601f016020809104026020016040519081016040528092919081815260200182805461100190612fb7565b801561104e5780601f106110235761010080835404028352916020019161104e565b820191906000526020600020905b81548152906001019060200180831161103157829003601f168201915b5050505050815260200160028201805461106790612fb7565b80601f016020809104026020016040519081016040528092919081815260200182805461109390612fb7565b80156110e05780601f106110b5576101008083540402835291602001916110e0565b820191906000526020600020905b8154815290600101906020018083116110c357829003601f168201915b5050509183525050600391909101546020918201528151908201516040830151606090930151919a90995091975095509350505050565b6006818154811061112757600080fd5b6000918252602090912001546001600160a01b0316905081565b6000602081905290815260409020805460018201805491929161116390612fb7565b80601f016020809104026020016040519081016040528092919081815260200182805461118f90612fb7565b80156111dc5780601f106111b1576101008083540402835291602001916111dc565b820191906000526020600020905b8154815290600101906020018083116111bf57829003601f168201915b5050505050908060020180546111f190612fb7565b80601f016020809104026020016040519081016040528092919081815260200182805461121d90612fb7565b801561126a5780601f1061123f5761010080835404028352916020019161126a565b820191906000526020600020905b81548152906001019060200180831161124d57829003601f168201915b5050506003840154600485015460058601546006909601549495919490935060ff909116915087565b6005546001600160a01b031633146112bd5760405162461bcd60e51b815260040161038590612d7d565b806000811180156112d057506004548111155b6112ec5760405162461bcd60e51b815260040161038590612c02565b60008281526020819052604090206003810154421061131d5760405162461bcd60e51b815260040161038590612e26565b600501805460ff191690555050565b6005546001600160a01b031633146113565760405162461bcd60e51b815260040161038590612d7d565b8082106113755760405162461bcd60e51b815260040161038590612cde565b4282116113945760405162461bcd60e51b815260040161038590612d3c565b600480549060006113a483612ff2565b90915550506040805160e08101825260045480825260208083018881528385018890526060840187905260808401869052600160a08501819052600060c086018190529384528383529490922083518155915180519394929361140e9385019291909101906123e6565b506040820151805161142a9160028401916020909101906123e6565b5060608201516003820155608082015160048083019190915560a083015160058301805460ff191691151591909117905560c090920151600690910155546040517fe7a0aae5d733e07e246dea86213a1ac1b0aa8554bde889bb75c12752f44e53d99161149c91879086908690612f09565b60405180910390a150505050565b60016020818152600093845260408085209091529183529120805491810180546114d390612fb7565b80601f01602080910402602001604051908101604052809291908181526020018280546114ff90612fb7565b801561154c5780601f106115215761010080835404028352916020019161154c565b820191906000526020600020905b81548152906001019060200180831161152f57829003601f168201915b50505050509080600201805461156190612fb7565b80601f016020809104026020016040519081016040528092919081815260200182805461158d90612fb7565b80156115da5780601f106115af576101008083540402835291602001916115da565b820191906000526020600020905b8154815290600101906020018083116115bd57829003601f168201915b5050505050908060030154905084565b6005546001600160a01b031633146116145760405162461bcd60e51b815260040161038590612d7d565b6001600160a01b0381166000908152600260208190526040909120015460ff166116505760405162461bcd60e51b815260040161038590612dbf565b60005b60065481101561179157816001600160a01b03166006828154811061168857634e487b7160e01b600052603260045260246000fd5b6000918252602090912001546001600160a01b0316141561177f57600680546116b390600190612fa0565b815481106116d157634e487b7160e01b600052603260045260246000fd5b600091825260209091200154600680546001600160a01b03909216918390811061170b57634e487b7160e01b600052603260045260246000fd5b9060005260206000200160006101000a8154816001600160a01b0302191690836001600160a01b03160217905550600680548061175857634e487b7160e01b600052603160045260246000fd5b600082815260209020810160001990810180546001600160a01b0319169055019055611791565b8061178981612ff2565b915050611653565b507fb899564762787ce77e1c3daf50221982caed2f56067b299766631f5eb026e80e60026000836001600160a01b03166001600160a01b031681526020019081526020016000206001016040516117e89190612a7f565b60405180910390a16001600160a01b038116600090815260026020526040812090611813828261246a565b61182160018301600061246a565b5060020180546001600160a81b031916905550565b60045481565b60006060806000806000806004548811156118695760405162461bcd60e51b815260040161038590612c02565b60008060008a81526020019081526020016000206040518060e0016040529081600082015481526020016001820180546118a290612fb7565b80601f01602080910402602001604051908101604052809291908181526020018280546118ce90612fb7565b801561191b5780601f106118f05761010080835404028352916020019161191b565b820191906000526020600020905b8154815290600101906020018083116118fe57829003601f168201915b5050505050815260200160028201805461193490612fb7565b80601f016020809104026020016040519081016040528092919081815260200182805461196090612fb7565b80156119ad5780601f10611982576101008083540402835291602001916119ad565b820191906000526020600020905b81548152906001019060200180831161199057829003601f168201915b5050505050815260200160038201548152602001600482015481526020016005820160009054906101000a900460ff161515151581526020016006820154815250509050806000015181602001518260400151836060015184608001518560a001518660c00151975097509750975097509750975050919395979092949650565b600260205260009081526040902080548190611a4990612fb7565b80601f0160208091040260200160405190810160405280929190818152602001828054611a7590612fb7565b8015611ac25780601f10611a9757610100808354040283529160200191611ac2565b820191906000526020600020905b815481529060010190602001808311611aa557829003601f168201915b505050505090806001018054611ad790612fb7565b80601f0160208091040260200160405190810160405280929190818152602001828054611b0390612fb7565b8015611b505780601f10611b2557610100808354040283529160200191611b50565b820191906000526020600020905b815481529060010190602001808311611b3357829003601f168201915b5050506002909301549192505060ff8116906001600160a01b036101009091041684565b6005546001600160a01b03163314611b9e5760405162461bcd60e51b815260040161038590612d7d565b6001600160a01b0381166000908152600260208190526040909120015460ff1615611bdb5760405162461bcd60e51b815260040161038590612c39565b6001600160a01b038116611c015760405162461bcd60e51b815260040161038590612d0d565b6040805160808101825284815260208082018590526001828401526001600160a01b03841660608301819052600090815260028252929092208151805192939192611c4f92849201906123e6565b506020828101518051611c6892600185019201906123e6565b50604082810151600292909201805460609094015160ff1990941692151592909217610100600160a81b0319166101006001600160a01b039485160217909155600680546001810182556000919091527ff652222313e28459528d920b65115c16c04f3efc82aaedc97be59f3f377c0d3f0180546001600160a01b03191692841692909217909155517fffeb7702be7dcd8fee170d954b70afb9a7c78f7f5cff232d037e7b9d8243356a90611d2090839085906128bd565b60405180910390a1505050565b600454821115611d4f5760405162461bcd60e51b815260040161038590612c02565b60008281526020819052604090206005015460ff16611d805760405162461bcd60e51b815260040161038590612df6565b600082815260208190526040902060030154421015611db15760405162461bcd60e51b815260040161038590612ba0565b600082815260208190526040902060040154421115611de25760405162461bcd60e51b815260040161038590612b74565b336000908152600260208190526040909120015460ff16611e155760405162461bcd60e51b815260040161038590612dbf565b600082815260036020908152604080832033845290915290205460ff1615611e4f5760405162461bcd60e51b815260040161038590612c70565b600082815260208190526040902060060154811115611e805760405162461bcd60e51b815260040161038590612bd7565b60008281526001602090815260408083208484529091528120600301805491611ea883612ff2565b9091555050600082815260036020908152604080832033808552925291829020805460ff1916600117905590517f7fe1d4e6b34e228b5dc059fcdc037c71b216fb2417f47c171e505144a5e4f5fc91611f049185918591612f35565b60405180910390a15050565b6005546001600160a01b03163314611f3a5760405162461bcd60e51b815260040161038590612d7d565b600454821115611f5c5760405162461bcd60e51b815260040161038590612c02565b600082815260208190526040902060060154811115611f8d5760405162461bcd60e51b815260040161038590612ca7565b60008281526020819052604090206005015460ff16611fbe5760405162461bcd60e51b815260040161038590612df6565b60408051602080820180845260008084528681526001808452858220878352909352939093209151611ff5939290910191906123e6565b50604080516020808201808452600080845286815260018352848120868252909252929020905161202c92600290920191906123e6565b506000918252600160209081526040808420928452919052812060030155565b60008060015b60045481116120955760008181526020819052604090206005015460ff1615612083578161207f81612ff2565b9250505b8061208d81612ff2565b915050612052565b50905090565b60608060008060026000866001600160a01b03166001600160a01b031681526020019081526020016000206040518060800160405290816000820180546120e190612fb7565b80601f016020809104026020016040519081016040528092919081815260200182805461210d90612fb7565b801561215a5780601f1061212f5761010080835404028352916020019161215a565b820191906000526020600020905b81548152906001019060200180831161213d57829003601f168201915b5050505050815260200160018201805461217390612fb7565b80601f016020809104026020016040519081016040528092919081815260200182805461219f90612fb7565b80156121ec5780601f106121c1576101008083540402835291602001916121ec565b820191906000526020600020905b8154815290600101906020018083116121cf57829003601f168201915b50505091835250506002919091015460ff811615156020808401919091526101009091046001600160a01b031660409283015282519083015192909101519097919650945092505050565b60008060015b6004548111612095576000818152602081905260409020600601546122629083612f88565b91508061226e81612ff2565b91505061223d565b6005546001600160a01b031633146122a05760405162461bcd60e51b815260040161038590612d7d565b6004548311156122c25760405162461bcd60e51b815260040161038590612c02565b60008381526020819052604090206005015460ff166122f35760405162461bcd60e51b815260040161038590612df6565b600083815260208190526040812060060154612310906001612f88565b60408051608081018252828152602080820187815282840187905260006060840181905289815260018084528582208783528452949020835181559051805195965092949093612365939085019201906123e6565b50604082015180516123819160028401916020909101906123e6565b506060919091015160039091015560008481526020819052604090819020600601829055517fed8911b3df733b7d5f75724158e54478ea12e30f49c9d31b5261879f5b76586f9061149c90869084908790612f54565b6005546001600160a01b031681565b8280546123f290612fb7565b90600052602060002090601f016020900481019282612414576000855561245a565b82601f1061242d57805160ff191683800117855561245a565b8280016001018555821561245a579182015b8281111561245a57825182559160200191906001019061243f565b506124669291506124a9565b5090565b50805461247690612fb7565b6000825580601f1061248857506124a6565b601f0160209004906000526020600020908101906124a691906124a9565b50565b5b8082111561246657600081556001016124aa565b80356001600160a01b03811681146124d557600080fd5b919050565b600082601f8301126124ea578081fd5b81356001600160401b038082111561250457612504613023565b604051601f8301601f19168101602001828111828210171561252857612528613023565b60405282815284830160200186101561253f578384fd5b82602086016020830137918201602001929092529392505050565b60006020828403121561256b578081fd5b612574826124be565b9392505050565b60008060006060848603121561258f578182fd5b83356001600160401b03808211156125a5578384fd5b6125b1878388016124da565b945060208601359150808211156125c6578384fd5b506125d3868287016124da565b9250506125e2604085016124be565b90509250925092565b60008060008060808587031215612600578081fd5b84356001600160401b0380821115612616578283fd5b612622888389016124da565b95506020870135915080821115612637578283fd5b50612644878288016124da565b949794965050505060408301359260600135919050565b60006020828403121561266c578081fd5b5035919050565b60008060408385031215612685578182fd5b82359150612695602084016124be565b90509250929050565b6000806000606084860312156126b2578283fd5b8335925060208401356001600160401b03808211156126cf578384fd5b6126db878388016124da565b935060408601359150808211156126f0578283fd5b506126fd868287016124da565b9150509250925092565b600080600080600060a0868803121561271e578081fd5b8535945060208601356001600160401b038082111561273b578283fd5b61274789838a016124da565b9550604088013591508082111561275c578283fd5b50612769888289016124da565b9598949750949560608101359550608001359392505050565b60008060408385031215612794578182fd5b50508035926020909101359150565b6000815180845260208085019450808401835b838110156127d45781511515875295820195908201906001016127b6565b509495945050505050565b6000815180845260208085019450848183028601828601855b8581101561282257838303895261281083835161285e565b988501989250908401906001016127f8565b5090979650505050505050565b6000815180845260208085019450808401835b838110156127d457815187529582019590820190600101612842565b60008151808452815b8181101561288357602081850181015186830182015201612867565b818111156128945782602083870101525b50601f01601f19169290920160200192915050565b6001600160a01b0391909116815260200190565b6001600160a01b03831681526040602082018190526000906128e19083018461285e565b949350505050565b6080808252855190820181905260009060209060a0840190828901845b8281101561292b5781516001600160a01b031684529284019290840190600101612906565b5050508381038285015261293f81886127df565b915050828103604084015261295481866127df565b9050828103606084015261296881856127a3565b979650505050505050565b600060c0825261298660c083018961282f565b8281036020840152612998818961282f565b905082810360408401526129ac81886127df565b905082810360608401526129c081876127df565b905082810360808401526129d4818661282f565b905082810360a08401526129e881856127a3565b9998505050505050505050565b901515815260200190565b600060608252612a13606083018661285e565b8281036020840152612a25818661285e565b9150508215156040830152949350505050565b600060808252612a4b608083018761285e565b8281036020840152612a5d818761285e565b941515604084015250506001600160a01b039190911660609091015292915050565b6000602080835281845483600282049050600180831680612aa157607f831692505b858310811415612abf57634e487b7160e01b87526022600452602487fd5b612acb83878a01612e71565b818015612adf5760018114612af057612b1a565b60ff19861682528782019650612b1a565b612af98b612f7c565b895b86811015612b1457815484820152908501908901612afb565b83019750505b50949998505050505050505050565b6020808252602b908201527f43616e6e6f74206d6f64696679206f6e676f696e67206f7220636f6d706c657460408201526a32b21032b632b1ba34b7b760a91b606082015260800190565b602080825260129082015271115b1958dd1a5bdb881a185cc8195b99195960721b604082015260600190565b60208082526018908201527f456c656374696f6e20686173206e6f7420737461727465640000000000000000604082015260600190565b602080825260119082015270496e76616c69642063616e64696461746560781b604082015260600190565b60208082526017908201527f456c656374696f6e20646f6573206e6f74206578697374000000000000000000604082015260600190565b60208082526018908201527f566f74657220616c726561647920726567697374657265640000000000000000604082015260600190565b6020808252601e908201527f416c726561647920766f74656420696e207468697320656c656374696f6e0000604082015260600190565b60208082526018908201527f43616e64696461746520646f6573206e6f742065786973740000000000000000604082015260600190565b602080825260159082015274496e76616c696420656c656374696f6e2074696d6560581b604082015260600190565b602080825260159082015274496e76616c696420766f746572206164647265737360581b604082015260600190565b60208082526021908201527f456c656374696f6e206d75737420737461727420696e207468652066757475726040820152606560f81b606082015260800190565b60208082526022908201527f4f6e6c792061646d696e2063616e20706572666f726d2074686973206163746960408201526137b760f11b606082015260800190565b60208082526017908201527f566f746572206973206e6f742072656769737465726564000000000000000000604082015260600190565b602080825260169082015275456c656374696f6e206973206e6f742061637469766560501b604082015260600190565b6020808252602b908201527f43616e6e6f742064656c657465206f6e676f696e67206f7220636f6d706c657460408201526a32b21032b632b1ba34b7b760a91b606082015260800190565b90815260200190565b600085825260806020830152612e93608083018661285e565b8281036040840152612ea5818661285e565b91505082606083015295945050505050565b600088825260e06020830152612ed060e083018961285e565b8281036040840152612ee2818961285e565b60608401979097525050608081019390935290151560a083015260c0909101529392505050565b600085825260806020830152612f22608083018661285e565b6040830194909452506060015292915050565b92835260208301919091526001600160a01b0316604082015260600190565b600084825283602083015260606040830152612f73606083018461285e565b95945050505050565b60009081526020902090565b60008219821115612f9b57612f9b61300d565b500190565b600082821015612fb257612fb261300d565b500390565b600281046001821680612fcb57607f821691505b60208210811415612fec57634e487b7160e01b600052602260045260246000fd5b50919050565b60006000198214156130065761300661300d565b5060010190565b634e487b7160e01b600052601160045260246000fd5b634e487b7160e01b600052604160045260246000fdfea264697066735822122043b140fa27acb309120f1ecb714dcca18bb08315f46ff6dd006998d64ff4eb9364736f6c63430008000033",
  "immutableReferences": {},
  "source": "// SPDX-License-Identifier: MIT\npragma solidity ^0.8.0;\n\ncontract Election {\n    struct Candidate {\n        uint256 id;\n        string name;\n        string description;\n        uint256 voteCount;\n    }\n\n    struct Voter {\n        string name;\n        string voterId;\n        bool isRegistered;\n        address voterAddress;\n    }\n\n    struct ElectionData {\n        uint256 id;\n        string name;\n        string description;\n        uint256 startTime;\n        uint256 endTime;\n        bool isActive;\n        uint256 candidateCount;\n    }\n\n    mapping(uint256 => ElectionData) public elections;\n    mapping(uint256 => mapping(uint256 => Candidate)) public candidates;\n    mapping(address => Voter) public voters;\n    mapping(uint256 => mapping(address => bool)) public hasVoted;\n    \n    uint256 public electionCount;\n    address public admin;\n    address[] public voterList; // New array to track voter addresses\n\n    event ElectionCreated(uint256 electionId, string name, uint256 startTime, uint256 endTime);\n    event CandidateAdded(uint256 electionId, uint256 candidateId, string name);\n    event VoterRegistered(address voterAddress, string voterId);\n    event VoteCast(uint256 electionId, uint256 candidateId, address voter);\n    event VoterRemoved(string voterId);\n\n    modifier onlyAdmin() {\n        require(msg.sender == admin, \"Only admin can perform this action\");\n        _;\n    }\n\n    modifier electionExists(uint256 _electionId) {\n        require(_electionId > 0 && _electionId <= electionCount, \"Election does not exist\");\n        _;\n    }\n\n    constructor() {\n        admin = msg.sender;\n    }\n\n    function createElection(\n        string memory _name,\n        string memory _description,\n        uint256 _startTime,\n        uint256 _endTime\n    ) public onlyAdmin {\n        require(_startTime < _endTime, \"Invalid election time\");\n        require(_startTime > block.timestamp, \"Election must start in the future\");\n\n        electionCount++;\n        elections[electionCount] = ElectionData({\n            id: electionCount,\n            name: _name,\n            description: _description,\n            startTime: _startTime,\n            endTime: _endTime,\n            isActive: true,\n            candidateCount: 0\n        });\n\n        emit ElectionCreated(electionCount, _name, _startTime, _endTime);\n    }\n\n    function addCandidate(\n        uint256 _electionId,\n        string memory _name,\n        string memory _description\n    ) public onlyAdmin {\n        require(_electionId <= electionCount, \"Election does not exist\");\n        require(elections[_electionId].isActive, \"Election is not active\");\n\n        uint256 candidateId = elections[_electionId].candidateCount + 1;\n        candidates[_electionId][candidateId] = Candidate({\n            id: candidateId,\n            name: _name,\n            description: _description,\n            voteCount: 0\n        });\n\n        elections[_electionId].candidateCount = candidateId;\n        emit CandidateAdded(_electionId, candidateId, _name);\n    }\n\n    function registerVoter(\n        string memory _name,\n        string memory _voterId,\n        address _voterAddress\n    ) public onlyAdmin {\n        require(!voters[_voterAddress].isRegistered, \"Voter already registered\");\n        require(_voterAddress != address(0), \"Invalid voter address\");\n        \n        voters[_voterAddress] = Voter({\n            name: _name,\n            voterId: _voterId,\n            isRegistered: true,\n            voterAddress: _voterAddress\n        });\n\n        voterList.push(_voterAddress); // Add to voter list\n        emit VoterRegistered(_voterAddress, _voterId);\n    }\n\n    function vote(uint256 _electionId, uint256 _candidateId) public {\n        require(_electionId <= electionCount, \"Election does not exist\");\n        require(elections[_electionId].isActive, \"Election is not active\");\n        require(block.timestamp >= elections[_electionId].startTime, \"Election has not started\");\n        require(block.timestamp <= elections[_electionId].endTime, \"Election has ended\");\n        require(voters[msg.sender].isRegistered, \"Voter is not registered\");\n        require(!hasVoted[_electionId][msg.sender], \"Already voted in this election\");\n        require(_candidateId <= elections[_electionId].candidateCount, \"Invalid candidate\");\n\n        candidates[_electionId][_candidateId].voteCount++;\n        hasVoted[_electionId][msg.sender] = true;\n\n        emit VoteCast(_electionId, _candidateId, msg.sender);\n    }\n\n    function modifyElection(\n        uint256 _electionId,\n        string memory _name,\n        string memory _description,\n        uint256 _startTime,\n        uint256 _endTime\n    ) public onlyAdmin electionExists(_electionId) {\n        ElectionData storage election = elections[_electionId];\n        require(block.timestamp < election.startTime, \"Cannot modify ongoing or completed election\");\n        \n        election.name = _name;\n        election.description = _description;\n        election.startTime = _startTime;\n        election.endTime = _endTime;\n    }\n\n    function deleteElection(uint256 _electionId) \n        public \n        onlyAdmin \n        electionExists(_electionId) \n    {\n        ElectionData storage election = elections[_electionId];\n        require(block.timestamp < election.startTime, \"Cannot delete ongoing or completed election\");\n        \n        election.isActive = false;\n    }\n\n    function deleteCandidate(uint256 _electionId, uint256 _candidateId) public onlyAdmin {\n        require(_electionId <= electionCount, \"Election does not exist\");\n        require(_candidateId <= elections[_electionId].candidateCount, \"Candidate does not exist\");\n        require(elections[_electionId].isActive, \"Election is not active\");\n        \n        // Set the candidate's name to empty to mark as deleted\n        candidates[_electionId][_candidateId].name = \"\";\n        candidates[_electionId][_candidateId].description = \"\";\n        candidates[_electionId][_candidateId].voteCount = 0;\n    }\n\n    function deleteVoter(address _voterAddress) public onlyAdmin {\n        require(voters[_voterAddress].isRegistered, \"Voter is not registered\");\n        \n        // Remove from voterList\n        for (uint i = 0; i < voterList.length; i++) {\n            if (voterList[i] == _voterAddress) {\n                voterList[i] = voterList[voterList.length - 1];\n                voterList.pop();\n                break;\n            }\n        }\n        \n        emit VoterRemoved(voters[_voterAddress].voterId);\n        delete voters[_voterAddress];\n    }\n\n    // Function to get all registered voters\n    function getAllVoters() public view returns (\n        address[] memory voterAddresses,\n        string[] memory names,\n        string[] memory voterIds,\n        bool[] memory isRegistered\n    ) {\n        uint256 totalVoters = voterList.length;\n        \n        voterAddresses = new address[](totalVoters);\n        names = new string[](totalVoters);\n        voterIds = new string[](totalVoters);\n        isRegistered = new bool[](totalVoters);\n\n        for (uint256 i = 0; i < totalVoters; i++) {\n            address voterAddr = voterList[i];\n            Voter memory voter = voters[voterAddr];\n            \n            voterAddresses[i] = voterAddr;\n            names[i] = voter.name;\n            voterIds[i] = voter.voterId;\n            isRegistered[i] = voter.isRegistered;\n        }\n\n        return (voterAddresses, names, voterIds, isRegistered);\n    }\n\n    // View functions\n    function getElection(uint256 _electionId) public view returns (\n        uint256 id,\n        string memory name,\n        string memory description,\n        uint256 startTime,\n        uint256 endTime,\n        bool isActive,\n        uint256 candidateCount\n    ) {\n        require(_electionId <= electionCount, \"Election does not exist\");\n        ElectionData memory election = elections[_electionId];\n        return (\n            election.id,\n            election.name,\n            election.description,\n            election.startTime,\n            election.endTime,\n            election.isActive,\n            election.candidateCount\n        );\n    }\n\n    function getCandidate(uint256 _electionId, uint256 _candidateId) public view returns (\n        uint256 id,\n        string memory name,\n        string memory description,\n        uint256 voteCount\n    ) {\n        require(_electionId <= electionCount, \"Election does not exist\");\n        require(_candidateId <= elections[_electionId].candidateCount, \"Invalid candidate\");\n        Candidate memory candidate = candidates[_electionId][_candidateId];\n        return (\n            candidate.id,\n            candidate.name,\n            candidate.description,\n            candidate.voteCount\n        );\n    }\n\n    function getVoter(address _voterAddress) public view returns (\n        string memory name,\n        string memory voterId,\n        bool isRegistered\n    ) {\n        Voter memory voter = voters[_voterAddress];\n        return (\n            voter.name,\n            voter.voterId,\n            voter.isRegistered\n        );\n    }\n\n    function checkVoterVoteStatus(uint256 _electionId, address _voterAddress) public view returns (bool) {\n        require(_electionId <= electionCount, \"Election does not exist\");\n        return hasVoted[_electionId][_voterAddress];\n    }\n\n    // Function to get all candidates across all elections\n    function getAllCandidates() public view returns (\n        uint256[] memory electionIds,\n        uint256[] memory candidateIds,\n        string[] memory names,\n        string[] memory descriptions,\n        uint256[] memory voteCounts,\n        bool[] memory activeStates\n    ) {\n        // Calculate total number of candidates\n        uint256 totalCandidates = 0;\n        for (uint256 i = 1; i <= electionCount; i++) {\n            totalCandidates += elections[i].candidateCount;\n        }\n\n        // Initialize arrays with the total size\n        electionIds = new uint256[](totalCandidates);\n        candidateIds = new uint256[](totalCandidates);\n        names = new string[](totalCandidates);\n        descriptions = new string[](totalCandidates);\n        voteCounts = new uint256[](totalCandidates);\n        activeStates = new bool[](totalCandidates);\n\n        // Fill arrays with candidate data\n        uint256 currentIndex = 0;\n        for (uint256 electionId = 1; electionId <= electionCount; electionId++) {\n            ElectionData memory election = elections[electionId];\n            for (uint256 candidateId = 1; candidateId <= election.candidateCount; candidateId++) {\n                Candidate memory candidate = candidates[electionId][candidateId];\n                electionIds[currentIndex] = electionId;\n                candidateIds[currentIndex] = candidateId;\n                names[currentIndex] = candidate.name;\n                descriptions[currentIndex] = candidate.description;\n                voteCounts[currentIndex] = candidate.voteCount;\n                activeStates[currentIndex] = election.isActive;\n                currentIndex++;\n            }\n        }\n        return (electionIds, candidateIds, names, descriptions, voteCounts, activeStates);\n    }\n\n    // Function to get total candidate count across all elections\n    function getTotalCandidateCount() public view returns (uint256) {\n        uint256 totalCandidates = 0;\n        for (uint256 i = 1; i <= electionCount; i++) {\n            totalCandidates += elections[i].candidateCount;\n        }\n        return totalCandidates;\n    }\n\n    // Function to get total active elections count\n    function getActiveElectionsCount() public view returns (uint256) {\n        uint256 activeCount = 0;\n        for (uint256 i = 1; i <= electionCount; i++) {\n            if (elections[i].isActive) {\n                activeCount++;\n            }\n        }\n        return activeCount;\n    }\n}\n",
  "sourcePath": "C:\\Users\\LENOVO\\OneDrive\\Desktop\\SecureVote\\SecureVote-main\\contracts\\Election.sol",
  "compiler": {
    "name": "solc",
    "version": "0.8.0+commit.c7dfd78e.Emscripten.clang"
  },
  "schemaVersion": "3.4.16",
  "updatedAt": "2025-05-07T14:07:26.480Z",
  "networkType": "ethereum",
  "devdoc": {
    "kind": "dev",
    "methods": {},
    "version": 1
  },
  "userdoc": {
    "kind": "user",
    "methods": {},
    "version": 1
  }
}